:020000040800F2
:1000000060490020C1010008252600087923000866
:10001000212600082D0700082D2D000800000000F3
:100020000000000000000000000000004127000860
:100030001D08000800000000612600086527000870
:10004000DB010008DB010008DB010008DB01000820
:10005000DB010008DB010008DB010008DB01000810
:10006000DB010008DB010008DB010008DB01000800
:10007000DB010008DB010008DB010008DB010008F0
:10008000DB010008DB010008DB010008DB010008E0
:1000900031070008DB010008DB010008DB01000874
:1000A000DB01000851280008DB010008DB01000823
:1000B000DB010008DB010008DB010008DB010008B0
:1000C000DB010008DB010008DB010008DB010008A0
:1000D000DB010008ED2C0008DB010008DB01000853
:1000E000DB010008DB010008DB010008DB01000880
:1000F000DB010008DB010008DB010008DB01000870
:10010000DB010008DB010008DB010008DB0100085F
:10011000DB010008DB010008DB010008DB0100084F
:10012000DB010008DB01000851070008DB010008C3
:10013000DB010008DB010008DB010008DB0100082F
:1001400041070008DB010008DB010008DB010008B3
:10015000DB010008DB010008DB010008DB0100080F
:10016000DB010008DB010008DB010008DB010008FF
:10017000DB010008DB010008DB01000800000000D3
:10018000DB010008DB010008DB010008DB010008DF
:10019000DB010008DB010008DB010008DB010008CF
:1001A0000000000000000000DB010008DFF80CD0B8
:1001B00000F07AFA00480047793B000860490020C7
:1001C0000648804706480047FEE7FEE7FEE7FEE7F1
:1001D000FEE7FEE7FEE7FEE7FEE7FEE7352800085C
:1001E000AD0100082DE9F05F0546002092469B46D0
:1001F00088460646814640241BE02846414647463D
:10020000224600F09AF953465A46C01A914110D33B
:1002100011461846224600F081F92D1A67EB0108B5
:100220004F4622460120002100F078F917EB000923
:100230004E41201EA4F10104DFDC484631462A4627
:100240004346BDE8F09FD2B201E000F8012B491E01
:10025000FBD270470022F6E710B513460A46044663
:100260001946FFF7F0FF204610BD2DE9FE4F8046EE
:1002700081EA0300C00F0C46009021F0004123F0FA
:100280000045B8EB0200A94105D240462146904600
:100290001C460B46024623F00040104347D0270D72
:1002A000C7F30A00C3F30A510290401A0190402894
:1002B0006BDAC3F3130040F4801B0098924620B120
:1002C0000023D2EB030A63EB0B0B01985946C0F1F4
:1002D0004002504600F022F906460D465046594667
:1002E000019A00F03AF910EB08006141002487EA16
:1002F000115284EAE7731A4340D0009A62B3019A1C
:10030000012A4FEA075215DC001B61EB02014FF096
:10031000004202EA0752CDE90042001C41F580117B
:1003200032462B4600F071F903B0BDE8F08F40462D
:100330002146F9E7001B61EB0201001C41F5801327
:1003400000185B412018A2F5001747EB030140EAB3
:10035000D570B6196D4111E06D084FEA360645EAD1
:10036000C0754FEA0752001B61EB0201001C41F50A
:10037000801149084FEA30000019514132462B469E
:1003800003B0BDE8F04F00F031B900980122400001
:100390000023D0EB020263EBE073009821464FEAA2
:1003A000E074B8EB000061EB0401E9E783F000437F
:1003B0005BE781F0004158E72DE9FE4F81EA030435
:1003C00004F0004421F0004100944FF0000B23F0B2
:1003D000004350EA01045ED052EA03045BD0C3F349
:1003E0000A54C1F30A552C44A4F2F3340194A0FB3F
:1003F0000254C1F3130141F48011C3F3130343F416
:10040000801301FB024400FB034E840A970A44EA6E
:10041000815447EA8357A4FB076802958D0A05FBC0
:1004200007854FEA932C04FB0C542705029D4FEAE5
:10043000065847EA1637B5EB08056EEB070C870E32
:10044000920E47EA811742EA8312A7FB0201B6EB3C
:100450000B0164EB00042B0D43EA0C335E1844EBF4
:100460001C50DA465146E7FB0201C5F313044FEA7C
:100470000B3343EA14534FEA0432019C43EA060368
:10048000A4F10C040294009CCDE900B400F0BDF886
:1004900003B0BDE8F08F00200146F9E70EB5C10FAB
:1004A00080EAE0700844CA07002140F233438DE837
:1004B0000E000A460B4600F0A8F803B000BD00F09D
:1004C000004230F000400AD0C10D01F56071C0F368
:1004D000160042EA0151C20840071143704700204C
:1004E0000146704701F0004330B421F0004150EA6A
:1004F000010206D00A0DA2F56072C1F31301002AB1
:1005000002DC30BC00207047440F44EAC104C10043
:10051000E01830BC00EBC25000F031B8202A04DBF8
:10052000203A00FA02F1002070479140C2F1200306
:1005300020FA03F3194390407047202A04DB203A45
:1005400021FA02F00021704721FA02F3D040C2F1F3
:1005500020029140084319467047202A06DBCB173A
:10056000203A41FA02F043EAE07306E041FA02F36E
:10057000D040C2F12002914008431946704700293B
:10058000A8BF7047401C490008BF20F00100704719
:1005900010B4B0FA80FC00FA0CF050EA010404BF79
:1005A00010BC704749B1CCF1200421FA04F411FACF
:1005B0000CF118BF012121430843A3EB0C01CB1D13
:1005C0004FEA00614FEA102042BF002010BC704784
:1005D00000EBC35010440029A4BF10BC7047401C5E
:1005E000490008BF20F0010010BC704710B5141E70
:1005F00073F1000408DA401C41F1000192185B41DC
:100600001A4301D120F0010010BD2DE9F04D9246B2
:100610009B4611B1B1FA81F202E0B0FA80F22032C9
:100620009046FFF77BFF04460F4640EA0A0041EA86
:100630000B0153465A46084313D0114653EA0100B2
:1006400019D0C8F140025046FFF777FF05460E4625
:10065000504659464246FFF761FF084305D0012046
:1006600004E020463946BDE8F08D0020054346EA07
:10067000E0762C4337430A986305E40AA0EB0800B0
:100680000022FD0A44EA47540A3002D50020014600
:10069000E9E7010510196941DDE9084500196941DB
:1006A000BDE8F04DA2E70000064C074D06E0E0680B
:1006B00040F0010394E8070098471034AC42F6D3A9
:1006C000FFF778FD745000089450000890ED040A7C
:1006D00090ED0A2AB1EE401AB4EE412AF1EE10FA7A
:1006E00002DA80ED0A1A7047B4EE402AF1EE10FAF1
:1006F000B0EE401AC8BF80ED0A1A704790ED030AA9
:1007000090ED0C2AB1EE401AB4EE412AF1EE10FA47
:1007100002DA80ED0C1A7047B4EE402AF1EE10FABE
:10072000B0EE401AC8BF80ED0C1A7047FEE700001B
:1007300080B540F2EC30C2F2000000F0D9F980BD83
:1007400080B540F21440C2F2000000F0D1F980BD43
:1007500080B540F23C40C2F2000000F0EFFC80BDEA
:10076000D0F800C06FF00F024AF6AB2352FA8CF2B9
:10077000CAF6AA230146A2FB0330000905A31B5CAD
:1007800040F2FF302CEA00005F2A88BF0430C1E944
:100790001603704700061016000610168269816A5B
:1007A000B2F5005F06D06AB9022912D0012914D02F
:1007B000D1B90EE0032917D8DFE801F0020B020FD0
:1007C0000120704703293CBF012070471CBF002057
:1007D0007047C06AC0F300607047C06AA0F1C07083
:1007E000B0FA80F0400970470020704780B5D0F81B
:1007F00000C0D0F808E0DCF80000BEF1400F20F4A3
:100800008020CCF800000846CCF8043004BF104625
:100810000A46CCF80800CCF80C2080BD70470000D8
:100820007047000090F82020013A012A04D800689F
:1008300000F11402002004E000F1240201204FF432
:1008400080211368194311607047000010B590F8BB
:1008500020E0D0F800C0AEF1010EBEF1010FDCF8CF
:1008600008E00DD81EF0E05F10D0CEF3016EBEF1AF
:10087000030F11D100F1240101204FF4000233E0F5
:1008800000F1240101204FF480222DE000F1240129
:1008900001204FF4001227E0012000FA0EF018604A
:1008A000886818B14B6840EAC30001E00868400559
:1008B000D1E9033403430CEB0E10C0F88031C0F8CB
:1008C0008441097D012905D100F5C2710B6843F40B
:1008D00080730B605168C0F88C11126800F5C0710C
:1008E000C0F88821002001220B681A430A6010BD5D
:1008F000B0B590F82020013A012A2FD846F20060C6
:10090000C4F20000026842F001020260026822F4B0
:100910007C520260D1F814E0CC694A6A0368012C69
:1009200043EA022202600EF01F024FF0010303FAB5
:1009300002F2C3696FEA020C23EA0203C36113D017
:100940002CBBC36803EA0C03C360CB688C8844EA01
:10095000034300EBCE0423640B4611E0416A41F4EB
:10096000802141620120B0BDC3681343C3600B689E
:100970008C8844EA034300EBCE04236401F10C03AA
:100980008C681B8843EA044300EBCE04636443682D
:100990008D6943EA0204D1F810E0096A002D08BF0E
:1009A00003EA0C0444604369BEF1000F43EA020409
:1009B00008BF03EA0C040129446102D1C169114353
:1009C000C161016821F0010101600020B0BD00009B
:1009D0007047000010B590F82040013C012C0CD865
:1009E000D0F800C079B1DCF81040A4070FD100F1B5
:1009F000240101204FF4001270E000F124010120D5
:100A00004FF480226AE0DCF80C40A4076AD0046846
:100A100004EB011CDCF8B0410CF5D87E14F00404A2
:100A20009460DCF8B04119BFE4085460640D1460B0
:100A3000DEF80040002904F00204D460DCF8B44180
:100A400004F00F041461DCF8B441C4F3072494618A
:100A5000DCF8B4414FEA14445461DCF8B8211A7050
:100A6000026802EB0112D2F8B8214FEA12225A7042
:100A7000026802EB0112D2F8B8214FEA12429A70D2
:100A8000026802EB0112D2F8B8214FEA1262DA7062
:100A9000026802EB0112D2F8BC211A71026802EB63
:100AA0000112D2F8BC214FEA12225A71026802EBFD
:100AB0000112D2F8BC214FEA12429A71026802EB8D
:100AC0000112D2F8BC214FEA1262DA71006814BF39
:100AD00000F1100100F10C01002020220B681A43E4
:100AE0000A6010BD00F1240101204FF40012F5E767
:100AF0002DE9F04F81B0044600684669D0F80490B3
:100B00008768D0F80CB0D0F810A0D0F81880F107A2
:100B100003D1002530071CD423E0F90710D00121B0
:100B2000BA07816009D4780700F1AA80380700F17C
:100B3000B080204600F09CFA02E0204600F09AFACD
:100B40000025F80500F18480F80300F1AA80300741
:100B500007D51BF0100004D0206845F40075102163
:100B6000C160700708D51BF0080005D02068082177
:100B7000C160204600F0E4F9B00706D52068C068DF
:100B8000800702D0204600F0DDF9700607D51AF084
:100B9000100004D0206845F4806510210161B00682
:100BA00008D51AF0080005D0206808210161204608
:100BB00000F02AFAF00606D520680069800702D006
:100BC000204600F023FAB00308D519F0100005D034
:100BD000206810214160204600F01AFAF00308D581
:100BE00019F0080005D0206808214160204600F077
:100BF0004BFA300440F18F805FEA497040F1888001
:100C000006F4807008EA102028435FEA88710146E4
:100C100048BF41F00201B20558BF01465FEA487083
:100C20000D4648BF45F00405700558BF0D46300518
:100C30006ED518F070006BD010380009052862D806
:100C4000DFE800F0035356595C5F45F008055AE0B1
:100C500020684FF48071BA0581600AD4780512D4F7
:100C6000380519D4204600F007FAF8037FF56FAF76
:100C700017E0204600F002FAF8037FF568AF10E0B5
:100C80004FF400655DE705F50055F8037FF55FAFAC
:100C900007E04FF4805554E705F58045F8037FF5EC
:100CA00056AF20684FF48031BA0381600AD47803CC
:100CB0000FD4380313D4204600F0E2F930073FF593
:100CC00048AF4EE7204600F0DDF930073FF541AF71
:100CD00047E705F5004530073FF53BAF41E705F530
:100CE000803530073FF535AF3BE745F010050AE0AA
:100CF00045F0200507E045F0400504E045F080059B
:100D000001E045F480752068816921F070018161FE
:100D10002068042141602DB1606A2843606220464A
:100D2000FFF756FE01B0BDE8F08F0000B0B5C8B1C6
:100D3000044690F8200010B9204600F071F82068B1
:100D4000016821F00201016000F02AFC054600BFA5
:100D500020684168890707D500F022FC401B0B285A
:100D6000F6D312E00120B0BD016841F0010101603D
:100D700000F016FC054600BF20684168C9070DD188
:100D800000F00EFC401B0B28F6D3606A052140F4EE
:100D900000306062012084F82010B0BD217E02681E
:100DA000012922F0800208BF80320260617E026861
:100DB000012922F0400208BF40320260A17E026891
:100DC000012922F0200208BF20320260E17E026881
:100DD000012922F0100218BF10320260217F026840
:100DE000012922F0080208BF08320260617F026810
:100DF000012922F0040208BF04320260D4E901C2D2
:100E0000D4E9033561691A432A431143ACF1010265
:100E10001143C16100200121606284F82010B0BD3F
:100E200010B586B0006846F60002C4F20002002148
:100E30009042CDE90411CDE90211019134D046F27E
:100E40000041C4F20001884277D140F21011C2F291
:100E500000010A6843F64000C4F20200531C0B6014
:100E600052B900210091016841F0007101600168F0
:100E700001F00071009100990021009150F8101CC0
:100E8000142441F0080140F8101C50F8100C00F038
:100E90000800009000980320019040F20040C4F246
:100EA000020000F5006035E043F64000C4F20200A5
:100EB0000091016841F080610160016801F080618A
:100EC0000091009940F21011C2F200010A68531C0F
:100ED0000B6052B900210091016841F0007101607E
:100EE000016801F00071009100990021009150F813
:100EF000101C402441F0020140F8101C50F8100C66
:100F000000F00200009000986020019040F2004044
:100F1000C4F20200022102910021039103210491F5
:100F20000921059101A900F069FA20460521002256
:100F300000F0D4FB204600F0CDFB06B010BD000051
:100F40007047000010B58AB003AA01AB0021044627
:100F5000FFF740FD40F2EC30C2F20000844229D19C
:100F60000398A0F20120052824D8DFE800F0030848
:100F70000D12171C40F21020C2F2000017E040F2E0
:100F80002820C2F2000012E040F24020C2F200002D
:100F90000DE040F25820C2F2000008E040F20000EC
:100FA000C2F2000003E040F21800C2F2000001A902
:100FB00003F08EFD40F21440C2F20000844201D0E2
:100FC0000AB010BD039840F20121884206D140F2D8
:100FD0003000C2F2000001A903F07AFD40F20C10CB
:100FE000C2F2000001780029EAD144F24C21C2F299
:100FF000000101220A7040F21801C2F200010A81C8
:1010000002700AB010BD0000704700007047000079
:1010100070470000B0B5044690F8200001281DD1AB
:10102000022084F820002068016821F0010101609D
:1010300000F0B6FA054600BF20684068C00713D02C
:1010400000F0AEFA401B0B28F6D3606A40F4003083
:101050006062052084F820000120B0BD606A40F481
:10106000002060620120B0BD00206062B0BD0000C1
:101070007047000070470000704700007047000094
:1010800070470000704700007047000070B5866D23
:10109000044600F085FA94F83510022928D1054657
:1010A0002068216C026822F016020260426922F078
:1010B0008002426109B9A16C19B1016821F00801EF
:1010C0000160016821F00101016000BF2068006833
:1010D000C00714D000F064FA401B0628F6D3202085
:1010E0006065002084F83400032084F8350070BD6A
:1010F00080206065002084F83400012070BDE06D20
:101100003F2101FA00F0B0600020012184F8340092
:1011100084F8351070BD000090F83510022909D10F
:10112000052180F835100068016821F00101016097
:10113000002070478021416501207047F0B581B0E3
:1011400004460020009040F24800C2F2000002680D
:10115000D4E9166048F2B51337680821C1F64E335A
:1011600081403942A2FB03250CD0226813685B073B
:1011700008D5136823F004031360B160616D41F07A
:101180000101616501218140394208D0226852691C
:10119000120604D5B160616D41F002016165042160
:1011A0008140394208D022681268920704D5B160A4
:1011B000616D41F00401616510218140394215D013
:1011C00020680268120711D5B160026801685203F5
:1011D00006D4C90506D4016821F00801016001E0C8
:1011E000080342D4216C09B120468847E16D2020D4
:1011F00000FA01F23A4244D020680368DB0640D589
:10120000B26094F835300268052B1ED122F0160228
:101210000260426922F080024261226C0AB9A26C2B
:101220001AB1026822F0080202603F208840B060D4
:10123000002084F83400012084F83500216D002955
:1012400040D02046884701B0F0BD0168520310D459
:10125000C90512D4016821F010010160002084F852
:101260003400012084F8350007E0A16C0029BBD1CF
:10127000BCE7080301D4616C00E0E16B09B12046D2
:101280008847606DF0B1606DC00717D0052084F805
:1012900035002068A90A026822F00102026000BF3E
:1012A000009A01328A42009202D80268D207F7D12E
:1012B000002084F83400012084F83500E16C09B185
:1012C0002046884701B0F0BD2DE9F041044600F00A
:1012D00067F9C4B10546002084F83400022084F880
:1012E00035002068016821F001010160266830683E
:1012F000C0070BD000F054F9401B0528F6D9032194
:101300002022032042E00120BDE8F081306848F24D
:101310003F01CFF21001251D00EA010C2ECDD4E9CA
:10132000050E41EA0C01114319432943D4E907781A
:10133000084340EA0E01606A3943042841EA080183
:1013400003D1D4E90B231143194331607169042897
:1013500021F0070141EA00050CD1D4E90A1045EA61
:10136000010538B12046FFF719FA18B101214022D2
:1013700001200BE020467561FFF7F2F9E16D3F2295
:1013800002FA01F18160002201210020626584F8E7
:101390003510BDE8F0810000B0B5044690F8340087
:1013A000012828D0012084F83400A56D94F8350078
:1013B00001281DD1022084F83500002060652046F8
:1013C000FFF714FAE26D3F23206803FA02F2216C62
:1013D000AA60026842F01602026019B1016841F089
:1013E00008010160016841F0010101600020B0BD09
:1013F000002084F834000220B0BD00002DE9F04F39
:1014000083B000F13E4202F1FF724FEAB22242F293
:1014100000470192C4F202070A224FF0010E002594
:101420004FF0000A4FF00008B84208BF09220092AE
:101430000AE000BF08F101080AF1040AB8F1100F30
:1014400005F1020500F0A2800C680EFA08FB14EA10
:101450000B09EFD04C6804F0030CACF1010EBEF1A7
:10146000010F12D882680323CE6803FA05F7BA4346
:1014700006FA05F73A4382604268C4F3001722EA8D
:101480000B0207FA08F73A434260BCF1030F1CD085
:10149000C26803238E6803FA05F7BA4306FA05F714
:1014A0003A43BCF1020FC2600FD16FF0030202EAAF
:1014B000580202440AF01C060F23176A03FA06F4C6
:1014C0000B69A743B3403B431362026803234F6891
:1014D000AB409A4307F00303AB401A43FB004FF0C5
:1014E000010E0260A6D5002243F644030292C4F224
:1014F00002031A6843F6004442F480421A601A68F4
:10150000C4F2010402F480420292029A28F003021B
:101510004FF6084B2244CFF6FF7B52F80B300AF00F
:101520000C070F26BE4023EA060C019B009E092BE8
:1015300038BF1E4606FA07F747EA0C0342F80B309D
:1015400022684B6842EA0907DE0358BF22EA09070E
:10155000276062689E0342EA090758BF22EA09072A
:101560006760A268DE0242EA090758BF22EA09075B
:10157000A76043F60C47C4F201073A689B0242EAAF
:10158000090358BF22EA09033B6053E703B0BDE8F3
:10159000F08F0000002A08BF090481617047000035
:1015A00044F25420C2F200000068704740F2D400B8
:1015B00044F25421C2F20000C2F2000100780A682D
:1015C000104408607047000080B543F60040C4F244
:1015D0000200016841F400710160016841F480611A
:1015E0000160016841F480710160032000F086F819
:1015F000002000F005F800F049F8002080BD000050
:1016000010B586B0014619200022002400F066F8CB
:10161000192000F05FF843F644000194C4F2020080
:10162000016841F0010101600068694600F00100B5
:101630000190019801A800F053F900F089F94DF6E6
:1016400083614000C4F21B31A0FB01014FF0FF3069
:1016500000EB914140F29C400022C2F20000C4F233
:10166000010240F2E733C0E90021C0E9024304610E
:1016700000F05CFB10B1012006B010BD40F29C40B0
:10168000C2F2000000F082FB06B010BD80B582B04F
:10169000002043F640010190C4F202014A6842F47E
:1016A00080424A604A6802F480420192019A0090A6
:1016B0000868002240F08050086008680F2100F0A0
:1016C0008050009000986FF0010000F007F802B021
:1016D00080BD000080B501F02BFB80BD70B51446C5
:1016E0000D46064601F034FB2946224600F09CFFD9
:1016F0000146304601F034FB70BD000080B501F0BA
:1017000041FB80BD70B582B00020019043F64000DF
:10171000C4F202000168402641F080510160006877
:10172000C4F20E2600F080500190019847F20405A3
:101730000120C4F200053060FFF732FF044600BF0D
:101740002868C00306D4FFF72BFF001BB0F57A7F93
:10175000F6D90EE001207060FFF722FF044600BFBB
:101760002868800308D4FFF71BFF001BB0F57A7FC1
:10177000F6D9032002B070BD002002B070BD000099
:101780002DE9F041002800F08B8043F60808C4F2F0
:1017900002080446D8F8F8030D4600F00F0088420E
:1017A00007D288F8F853D8F8F80300F00F00A842E1
:1017B00076D12068810717D5410705D5D8F80010E4
:1017C00041F4E051C8F80010010705D5D8F8001021
:1017D00041F46041C8F80010D8F80010A26821F068
:1017E000F0011143C8F80010C0073FD1D8F8F80342
:1017F00000F00F00A84207D988F8F853D8F8F8038A
:1018000000F00F00A8424BD12068410707D5D8F857
:101810000010E26821F4E0511143C8F800100007FD
:1018200008D5D8F80000216920F4604040EAC100E2
:10183000C8F8000000F09EF8D8F8001045F2400209
:10184000C1F30311C0F60002515C40F2480220FAD5
:1018500001F140F2D800C2F200000068C2F20002BA
:101860001160FFF7CDFE0020BDE8F0816068811EA9
:10187000022907D258F8081C89015CBF0120BDE885
:10188000F08110E0012807D158F8081C89035CBFDB
:101890000120BDE8F08106E058F8081C890702D451
:1018A0000120BDE8F081D8F8001021F003010843C1
:1018B000C8F80000FFF774FE064641F2883700BF03
:1018C000D8F80000616800F00C00B0EB810F8DD0FB
:1018D000FFF766FE801BB842F2D90320BDE8F08115
:1018E0000F22026043F60802C4F20202136803F0FA
:1018F00003034360136803F0F0038360136803F489
:10190000E053C360D2F800C04FF4E05303EADC03B5
:101910000361D2F8F80300F00F0008607047000080
:1019200040F24800C2F200000068704780B5FFF73F
:10193000F7FF43F60801C4F20201096845F25002BC
:10194000C1F38221C0F60002515CC84080BD000096
:1019500080B5FFF7E5FF43F60801C4F2020109680C
:1019600045F25002C1F34231C0F60002515CC8405A
:1019700080BD000010B543F60404C4F202046068A0
:1019800000F00C0008280AD0042819BF42F20040D9
:10199000C0F2F40041F60030C0F2B70010BD20687C
:1019A00021682368490241F60031C0F2B70100F016
:1019B0003F02C3F388105CBF42F20041C0F2F40161
:1019C000A1FB00010023FEF70DFC21680222C1F3F8
:1019D000014102EB4101B0FBF1F010BD2DE9F041F6
:1019E00082B0002800F0A2800446007843F600068A
:1019F000C007C4F2020643D0B06800F00C0004280F
:101A000005D1306880033BD56068C8BB8EE0B06804
:101A100000F00C00082802D170684002F1D465681B
:101A2000B5F5A02F0AD0B5F5803F0BD0306820F473
:101A300080303060306820F4802006E0306840F468
:101A400080203060306840F480303060FFF7A8FDBF
:101A5000002D054611D000BF3068800310D4FFF779
:101A60009FFD401B6428F7D922E100BFFFF798FDD6
:101A7000401B64284FF0030055D830688003F5D42C
:101A8000207880071AD5B06810F00C0F09D0B06824
:101A900000F00C00082840F08A807068400200F1D5
:101AA00086803068800702D5E06801283ED1306822
:101AB000216920F0F80040EAC1003060207800077A
:101AC00038D4207840074CD4A5695DB3B06800F0E5
:101AD0000C00082840F09E80012D27D07068E16935
:101AE00000F480028A4221D1216A00F03F028A423A
:101AF0001CD147F6C071626A0140B1EB821F15D15B
:101B0000A26A0023CFF6FF7303EBC23200F4403128
:101B10006FF30F02914209D1E16A00F07060B0EBFF
:101B2000016F03D1002002B0BDE8F081012002B0B6
:101B3000BDE8F0816069002840F20000C4F247204F
:101B400057D00121C0F8801EFFF72AFD054600BFCF
:101B5000706F8007B5D4FFF723FD401B0228F7D92B
:101B6000A6E0306C10F080580AD100200190306C53
:101B700040F080503064306C00F08050019001984B
:101B800047F20007C4F200073868C00524D438685B
:101B900040F480703860FFF703FD05463868C005E3
:101BA0001AD4FFF7FDFC401B0228F7D980E0E0685B
:101BB000002851D00020C4F2472001210160FFF726
:101BC000EFFC0546306880073FF571AFFFF7E8FC92
:101BD000401B0228F6D96BE0A568052D50D0012DD9
:101BE00052D0306F20F001003067306F20F00400D9
:101BF0004DE00021C0F8801EFFF7D2FC054600BF73
:101C0000706F80077FF55DAFFFF7CAFC401B0228AD
:101C1000F6D94DE00027C4F2472700203866FFF7C9
:101C2000BFFC022D05460BD13068800158D5FFF767
:101C3000B7FC401B02284FF00300F5D973E700BF43
:101C4000306880017FF56EAFFFF7AAFC401B0228C9
:101C50004FF00300F4D966E70020C4F247200021CA
:101C60000160FFF79DFC0546306880077FF526AFD1
:101C7000FFF796FC401B02284FF00300F4D952E70F
:101C8000306F40F004003067306F40F00100306783
:101C9000FFF786FC002D054641F2883714D000BFBF
:101CA000306F800713D4FFF77BFC401BB842F7D995
:101CB000032002B0BDE8F081FFF772FC401BB84280
:101CC0004FF003003FF62FAF306F8007F4D4B8F128
:101CD000000F7FF4F9AE306C20F080503064F3E6F2
:101CE00004F11C052FCD08430021CFF6FF7140EA17
:101CF000821001EBC3316FF30F0140EA0560084326
:101D0000706001203866FFF74BFC044630688001A4
:101D10003FF508AFFFF744FC001B02284FF003001B
:101D2000F4D900E77047000070470000002804BFA6
:101D30000120704710B5044690F83D0028B90020F6
:101D400084F83C00204600F01FF8022084F83D0093
:101D50002068211D00F084FD012084F8460084F8ED
:101D60003E0084F83F0084F8400084F8410084F885
:101D7000420084F8430084F8440084F8450084F865
:101D80003D00002010BD00007047000090F83D109D
:101D900001291CBF01207047022180F83D10006816
:101DA00041F2FF72C168C4F20002904241F00101A9
:101DB000C1600DDC40F2FF71C4F20001884215DC05
:101DC000B0F1804F29D040F20041C4F2000122E07E
:101DD00040F2FF31C4F20101884212DC41F60001F9
:101DE000C4F20001884218D0002112E040F6000140
:101DF000C4F20001884210D040F60041C4F2000154
:101E000009E044F20001C4F20101884205D040F229
:101E10000041C4F20101884206D1816801F0070146
:101E2000062904BF00207047016841F001010160EC
:101E3000002070477047000010B504460068016933
:101E4000890744BFC1685FEA817138D4206801699D
:101E5000490744BFC1685FEA41713CD42068016909
:101E6000090744BFC1685FEA017141D42068016974
:101E7000C90644BFC1685FEAC16145D420680169F1
:101E8000C9071CBFC1685FEAC1714AD120680169F6
:101E9000090644BFC1685FEA016149D4206801694D
:101EA000490644BFC1685FEA416148D420680169BE
:101EB000890644BFC1685FEA816147D410BD6FF0F5
:101EC00002010161012121778069800745D0204608
:101ED000FFF7B0FF47E06FF00401016102212177B5
:101EE000806910F4407F41D02046FFF7A3FF43E014
:101EF0006FF00801016104212177C06980073ED09D
:101F00002046FFF797FF40E06FF0100101610821C4
:101F10002177C06910F4407F3AD02046FFF78AFF4E
:101F20003CE06FF001010161204600F03FF8ADE7B1
:101F30006FF0800101612046FFF7F4FEAEE76FF01D
:101F400040010161204600F03BF8AFE76FF020014F
:101F500001612046FFF7E8FE10BD204600F022F8A0
:101F6000204600F021F8002020776FE7204600F09F
:101F700019F8204600F018F8002020776EE7204678
:101F800000F010F8204600F00FF8002020776DE7F1
:101F9000204600F007F8204600F006F800202077E1
:101FA0006CE70000704700007047000080B50068D3
:101FB0000021C4F20101884208BFFFF7F7FA80BD93
:101FC000704700007047000010B504460068416982
:101FD00094F83D20212A0ED111F080010BD04169E7
:101FE00021F080014161606B002818BFFFF74EF8B7
:101FF000204600F04FFD2068416994F83E20222AD7
:102000000ED111F040010BD0416921F04001416136
:10201000A06B002818BFFFF739F8204600F018FD24
:10202000002010BD70470000B0B582B001680546C1
:102030000868CA684C6900F02F03202B02F02003C7
:1020400005D123B1284600F02FFD02B0B0BD5FEAF4
:10205000007C1EBF04F0010E02F4907414EB0E0419
:1020600024D12B6B1040C20617D5012B15D10020AF
:1020700001900868019048680190019848694006FD
:102080001CD4A88DEA8DEB8D002B1CBF801A5FEA53
:10209000004240F09B8002B0B0BD010637D440063C
:1020A000F9D5284600F0EAFC02B0B0BDC10718BF60
:1020B00012F4807130D1410734D43AE0A86B026841
:1020C000526893B2002BE6D0AC8DA342E3D2EA85EE
:1020D000C269B2F5807F16D0CA6822F48072CA60E5
:1020E0004A6922F001024A614A6922F040024A61CB
:1020F000202285F83E2000222A63CA6822F01002BE
:10210000CA60FEF7C3FFA88DE98D401A6FE028462C
:1021100000F0C2FD02B0B0BD296C41F0010129649C
:10212000410706D5BEF1000F03D0296C41F0020132
:102130002964810706D5BEF1000F03D0296C41F058
:1021400004012964BCF1000F06D55EEA030103D047
:10215000296C41F008012964296C00299BD01040AA
:10216000800602D5284600F09FFC28684069296C4B
:1021700000F0400001F00801401820D0284600F08F
:1021800067FC28684169490614D5416921F040017E
:102190004161A86B70B142F68511C0F6000101657E
:1021A000FEF7BAFF00283FF476AFA86B016D8847B1
:1021B00002B0B0BD2846FFF735FF02B0B0BD2846DB
:1021C000FFF730FF0020286402B0B0BDCA6822F4D7
:1021D0009072CA604A6922F001024A61202285F8A1
:1021E0003E2000222A63CA6822F01002CA6081B22F
:1021F0002846FFF7E7FE02B0B0BD0000002804BF8C
:102200000120704710B5044690F83D0028B9002021
:1022100084F83C00204600F021F8242084F83D009A
:102220002068C16821F40051C160204600F08CFC98
:102230002068016921F490410161416921F02A017E
:102240004161C16841F40051C16000202021206437
:1022500084F83D1084F83E1010BD000070B586B0C3
:10226000044641F200002168C4F2010000268142C8
:102270000596CDE903660296019601D006B070BDC1
:1022800043F630010096C4F202014A6900F570403D
:1022900042F010024A614A6902F010020092009A6C
:1022A00000960A6842F001020A60096801F0010123
:1022B000009100994FF4C06101910221CDE902160D
:1022C000032104910721059101A9FFF797F840F236
:1022D0003C4546F24040C2F20005C4F202004FF015
:1022E000006185E843004FF440304FF48062C5E957
:1022F00008062846C5E90362C5E90566EE61FEF7F2
:10230000E3FF002818BFFEF78BFA25200F210022DB
:10231000A563AC63FFF7E2F92520FFF7DBF940F294
:10232000E440C2F200000068C16841F01001C160E1
:1023300006B070BD10B590F83E30202B0BD10029AF
:102340004FF0010418BF002A01D1204610BD90F8BB
:102350003C30012B01D1022010BD0123002480F864
:102360003C30046300F05EFC204610BD7047000066
:102370007047000070470000FEE7000080B540F2A3
:10238000EC3046F20041C2F20000C4F20001052226
:10239000002380E80E0000F10C014FF4A02C4FF454
:1023A000801E81E808504FF480710183C0F81A3014
:1023B000FEF7BCFC002818BFFEF732FA80BD000013
:1023C00080B540F2144046F60001C2F20000C4F2AB
:1023D00000010522002380E80E0000F10C014FF4FB
:1023E000A02C4FF4801E81E808504FF480710183C7
:1023F000C0F81A30FEF79AFC002818BFFEF710FA52
:1024000080BD000080B582B00020019043F630000E
:10241000C4F202000168002241F4800101600068FA
:10242000052100F48000019001983A20FFF756F949
:102430003A20FFF74FF902B080BD000010B596B00A
:1024400044F6EC70C0F6000090E80E50D0E905406C
:102450000F91CDE914400FA8002110921193CDF8EF
:1024600048C0CDF84CE001F0F5FB40F22C51C2F22F
:102470000001086045F20800C0F6000090E81E5018
:10248000806908910E9008A8002109920A930B9484
:10249000CDF830C0CDF834E001F0DCFB40F2305133
:1024A000C2F20001086045F22400C0F6000090E886
:1024B0001E5080690191079001A8002102920393A8
:1024C0000494CDF814C0CDF818E001F0C3FB40F23D
:1024D0003451C2F20001086016B010BD2DE9F04F72
:1024E00087B0002743F630000697CDE90477CDE9A1
:1024F00002770197C4F20200016840F6004441F0FF
:10250000800101600168C4F2020401F080010191C0
:10251000019901970168002241F0080101600168FA
:1025200001F00801019101990197016841F004014E
:102530000160016801F004010191019901970168AE
:1025400041F001010160016801F00101019101996F
:102550000197016841F00201016000684FF4806159
:1025600000F00200019001982046FFF713F8204682
:102570004FF4A04101224FF00109FFF70BF8A4F539
:10258000806630464FF4A07101224FF4A07AFFF725
:1025900001F8A4F5406528464FF4807101224FF4FC
:1025A000807BFEF7F7FF4FF4A8400DF10808CDE956
:1025B000020920464146CDE90477FEF71FFF304669
:1025C0004146CDE902A9CDE90477FEF717FF284679
:1025D0004146CDE902B9CDE90477FEF70FFF07B018
:1025E000BDE8F08F80B540F2E44041F20001C2F254
:1025F0000000C4F2010148F2A06200234FF00C0C6D
:10260000C0F2010280E80E00C0E90333C0E905C34F
:10261000C361FFF7F3FD002818BFFEF701F980BD85
:10262000FEE700007047000000F0070080F007039D
:10263000042B28BF04234FF0FF3C03380CFA03F3AC
:1026400038BF0020994381400CFA00F022EA0000D4
:102650000843704700000000000000000000000078
:10266000EFF30980BFF36F8F154B1A681EF0100F40
:1026700008BF20ED108A20E9F04F10602DE9090015
:102680004FF0500080F31188BFF34F8FBFF36F8F6F
:1026900002F0DAF94FF0000080F31188BDE809007C
:1026A00019680868B0E8F04F1EF0100F08BFB0ECD2
:1026B000108A80F30988BFF36F8F704700BF00BF97
:1026C0003C05002010B5044694ED071A94ED082A45
:1026D00094ED000A31EE421ABDEEC11A406984ED54
:1026E000051AB8EEC11A94ED013A20EE010A84ED04
:1026F000090A94ED0A0A23EE011AA06130EE010ADC
:10270000204684ED0A0AFDF7E1FFD4E9050194EDC6
:10271000021A401A00EE100A94ED092A94ED0A3AC2
:10272000B8EEC00A21EE000A32EE031A30EE011AAA
:10273000204684ED0B0A84ED0C1AFDF7DFFF10BD77
:10274000074B19680868B0E8F04F80F30988BFF3B9
:102750006F8F4FF0000080F31188704700BF00BFFB
:102760003C05002080B54FF0500080F31188BFF386
:102770006F8FBFF34F8F02F0EBFA30B14EF604507B
:10278000CEF200004FF080510160002080F31188EC
:1027900080BD000070B592B006AC20463021FDF738
:1027A00059FD002543F640000595CDE90355CDE9D7
:1027B00001550095C4F202000168022641F08051E3
:1027C0000160006800F080500090009847F200001F
:1027D0000095C4F20000016841F4404101600068C6
:1027E00000F4404000900098012006904FF48030A3
:1027F00007904FF480000D9006200E90B420CDE994
:102800000F060420119020460C96FFF7E7F8FEF71C
:1028100079FF0F20CDE901064FF4A05004904FF44A
:102820008050059001A805210395FEF7A9FF12B07D
:1028300070BD00004EF68850CEF20000016841F4F1
:10284000700101604FF0006140F8801C704700008B
:1028500080B540F29C40C2F20000FFF7EDFA80BD67
:1028600010B540F6FF3E0368C4F2000E40F2004C83
:102870007045C4F2010C0FDCB0F1804F19D040F26A
:102880000042C4F20002904213D040F60002C4F2AB
:10289000000290420DD010E040F60042C4F2000267
:1028A000904206D0604504D00022C4F2010290425A
:1028B00003D14A6823F07003134341F6FF72C4F258
:1028C000000290420DDC70451FDCB0F1804F41D01A
:1028D00040F20042C4F2000290423BD040F60002B7
:1028E00021E043F6FF72C4F20102904220DC42F282
:1028F0000002C4F2000290422CD00022C4F2010275
:10290000904227D0604525D028E040F60042C4F22E
:10291000000290421ED041F60002C4F20002904232
:1029200018D041F60042C4F20002904212D015E0E5
:1029300044F20002C4F2010290420BD044F60002BD
:10294000C4F20102904205D044F20042C4F20102F6
:10295000904203D1CA6823F44073134323F08002EA
:102960004B69D1F800E08C681A430260C46240F4FD
:102970008062C0F828E0624504BF09690163012153
:10298000416110BD80B5806B0021C185C184FFF716
:1029900049FB80BD10B5846B2068406994F83D10F8
:1029A000212907D110F0800004D00020E0842046C7
:1029B00000F070F82068406994F83E10222907D191
:1029C00010F0400004D00020E085204600F040F8E0
:1029D000206C40F0100020642046FFF723FB10BD60
:1029E00080B50168806B0968C90518D40021C185CC
:1029F0000168CA6822F48072CA604A6922F0010242
:102A00004A614A6922F040024A61202280F83E2051
:102A1000026B012A03D1CA6822F01002CA60016B5E
:102A2000012903D1818DFFF7CDFA80BDFFF79EFC10
:102A300080BD000080B5806B016B012904D1818DC0
:102A40004908FFF7BFFA80BDFFF792FC80BD000088
:102A50000168CA6822F49072CA604A6922F00102D1
:102A60004A61026B012A03D1CA6822F01002CA60CF
:102A7000202180F83E1000210163704780B5016875
:102A8000CA6822F04002CA60202180F83D10FFF79A
:102A900071FC80BD0168CA6822F0C002CA602021B2
:102AA00080F83D107047000010B5044690F83E00D5
:102AB000222847D1A168B1F5805F01D1206980B19A
:102AC000A06AB1F5805F07D009B9216921B12168F9
:102AD000496801F07F0101E0216849680170012027
:102AE00006E02068A16A40686FF35F20088002203A
:102AF000A16A0844A062E08D01380104E08518BF96
:102B000010BD2068C16821F02001C160C16821F4B6
:102B10008071C160416921F001014161202184F887
:102B20003E10216B012908D1C16821F01001C1605C
:102B3000A18D2046FFF746FA02E02046FFF716FC7B
:102B40000020206310BD000010B504460068D4E9E1
:102B500002C22369016921F4405111430161626994
:102B600043EA0C01E3691143C268194349F20C635B
:102B70009A431143C1604169A26921F4407141F255
:102B80000043114340F48062C4F201039A42416160
:102B900002D1FEF7DDFE01E0FEF7C8FEE1696368E1
:102BA0001922B1F5004FA0FB02011CD15A00DB0F26
:102BB000FDF718FB48F21F51C5F2EB11A0FB0123F2
:102BC0005A096FF0630302FB0300322303EBC000DA
:102BD000A0FB01014FF4F87000EA111000EB0210A5
:102BE000C1F342111AE09A009B0FFDF7FBFA48F27D
:102BF0001F51C5F2EB11A0FB01235A096FF06303CB
:102C000002FB0300322303EB0010A0FB0101F020C4
:102C100000EA511000EB0210C1F34311226808438F
:102C2000906010BD70B582B01346002604468162E4
:102C300083850664222084F83E000A462168A06B42
:102C400042F6E11C42F6352E42F69515C0F6000C10
:102C5000C0F6000EC0F600050431C0E90FCEC0E991
:102C60001356FEF799FB01962168086801904868A1
:102C70000190019884F83C60C86840F48070C86096
:102C8000486940F001004861486940F04002002076
:102C90004A6102B070BD000090F83D10212923D197
:102CA0008168B1F5805F01D1016931B1016A0268C3
:102CB0004B1C03620978516007E0016A036831F830
:102CC000022B6FF35F225A600162C18C01390A0442
:102CD000C18418BF70470068C16821F08001C160DD
:102CE000C16841F04001C1607047000010B540F27A
:102CF000E440C2F2000000680068C00658BF10BD82
:102D000040F2E444C2F200042046FFF75DF940F2CD
:102D1000F601C2F2000120461322FFF70BFB20460A
:102D2000FFF782F900F0C0FA10BD0000FEE70000D6
:102D3000002848BF704700F01F01012202FA01F18C
:102D40004EF200124009CEF2000242F82010704705
:102D50004EF60C50CEF200000068C0F3022070471F
:102D60004EF6145300F00F02CEF2000309011A448C
:102D700000F16043B0F1FF3FC8BF03F5644211703A
:102D8000704700004EF60C51CEF200010A684FF673
:102D9000FF031A4060F30A2242F0806040F0FD70A9
:102DA0000860704770B540F2702440F2EC35C2F212
:102DB00000040E2601200021C2F20005C4E9080625
:102DC000C4E90011C4E90211C4E90411C4E9061000
:102DD00028462146FDF78CFD2846FEF71BF92846BC
:102DE0000221FDF71FFD40F21445C2F200052846FE
:102DF000214666626661FDF77BFD2846FEF70AF90B
:102E000028460221FDF70EFD70BD0000B0B52DED86
:102E1000068B92ED008A1546B0EE480A044601F092
:102E20005BFB95ED031A95ED042A95ED019A31EEC1
:102E300002AA20EE0A0A38EE008AB0EE490A84EDB2
:102E4000008A01F049FB2AEE000A39EE000A40F23E
:102E5000E00084ED010AC2F20000007D800615D476
:102E600040F2D820C2F20000B0EE480A01F0B8FAF1
:102E700094ED011A40F2E82084ED000AC2F200004D
:102E8000B0EE410A01F0ACFA84ED010A40F23C10C8
:102E9000C2F20000007840B140F2C8209FED0B0A5A
:102EA000C2F2000001F09CFA0BE095ED020A9FEDE2
:102EB000081A40F2982020EE010AC2F2000000F049
:102EC0002DFC84ED020ABDEC068BB0BD0060EA4526
:102ED00000001442B0B52DED028B40F2E004C2F2C6
:102EE0000004B4F90400B4F9021000EE100AB8EEC0
:102EF000C00AB2EE001A40F2F82520EE010AC2F232
:102F0000000585ED020A00EE101AB8EEC00AB2EE16
:102F1000048A40F2A82020EE080AC2F2000000F065
:102F2000FDFBB4F9000085ED000A00EE100AB8EED2
:102F3000C00A40F2B82020EE080AC2F2000000F0F9
:102F4000EDFB85ED010ABDEC028BB0BD82B040F215
:102F50004C04C2F2000440F2401894EC031A94EDC1
:102F6000030AD4ED040AC2F20008404600F04AFF0A
:102F700040F2741594EC031A94ED030AD4ED040A9C
:102F8000C2F20005284600F03DFF40F2A81694EC7E
:102F9000031A94ED030AD4ED040AC2F20006304687
:102FA00000F030FF40F2DC1794EC031A94ED030AB2
:102FB000D4ED040AC2F20007384600F023FF40F2C5
:102FC000183B40F2F82440F2582940F2EC3AC2F2A1
:102FD000000BC2F20004C2F20009C2F2000A73E060
:102FE00094ED000A94ED011A94ED022A30EE013AB4
:102FF00033EE024A40F2102088ED074A31EE404A93
:1030000030EE410AC2F2000030EE020AB0F90200CE
:1030100086ED070A32EE430A87ED070A00EE100A32
:1030200040F22820C2F20000B0F90200B8EEC00A57
:1030300088ED080A00EE100A40F24020C2F20000BB
:10304000B0F90200B8EEC00A85ED080A00EE100AD9
:10305000B9F90200B8EEC00A86ED080A00EE100ABF
:1030600032EE044AB8EEC00A404685ED074A87EDC5
:10307000080AFFF727FB2846FFF724FB3046FFF737
:1030800021FB3846FFF71EFB98ED0C0A95ED0C1A54
:10309000BDEEC00A10EE102ABDEEC10A96ED0C1A64
:1030A00097ED0C2A10EE103ABDEEC20ABDEEC11A21
:1030B00050464FF400718DED001A8DED010A01F0BC
:1030C0001FFA052000F0FEFD9BF80000012808BF54
:1030D000FFF700FF9BF80000022881D140F2043284
:1030E0002046C2F20002FFF791FE79E7F0B581B009
:1030F00044F24C25C2F20005E878032800F2CE80A5
:10310000DFE800F0021862A040F60044C4F20204B6
:10311000A4F580604FF480710022FEF73BFA204650
:103120004FF480410022FEF735FA962000F084FD2E
:10313000012084E040F60044C4F20204A4F540609B
:103140004FF480710022FEF725FA40F2C406C2F265
:10315000000696ED010A40F23000C2F200009FED39
:10316000502AB8EEC00A90ED031A30EE022A40F25F
:10317000DC57B4EE421AC2F20007F1EE10FA87ED06
:10318000070A40F38B809FED472A30EE020AB4EE27
:10319000401AF1EE10FA80F2818020464FF48051FF
:1031A00000220024FEF7F6F9642000F045FD96EDBC
:1031B000030A40F22850C2F20000B8EEC00A0470C0
:1031C000022087ED070A3AE040F2DC50C2F200002C
:1031D00090ED070A40F23000C2F200009FED302A65
:1031E00090ED031A30EE022AB4EE421AF1EE10FA14
:1031F00054DD9FED2C2A30EE020AB4EE401AF1EEB7
:1032000010FA4BDA40F60044C4F2020420464FF4B0
:1032100080410122FEF7BEF91E2000F00DFDA4F54D
:103220008064204640210022FEF7B4F9502000F0CF
:1032300003FD204640210122FEF7ACF90320E8708F
:1032400001B0F0BD40F2C400C2F2000090ED000AEF
:1032500040F2DC5040F60044B8EEC00AC2F2000072
:10326000C4F2020480ED070A20464FF48051012287
:10327000FEF790F9642000F0DFFCA4F540604FF405
:1032800080710122FEF786F9642000F01BFD40F2F8
:1032900028510020C2F20001E870087001B0F0BDB2
:1032A000000048C3000048432DE9F04140F2F60217
:1032B000C2F2000210785178D7789378167961F3CA
:1032C0000A20C908BF0063F34A1147EA931306F0C6
:1032D000010743EA87275379157C547C40F2E008C4
:1032E0007608C2F2000863F3CA1664F30A250028C0
:1032F000A8F80000A8F80210A8F80470A8F8066062
:10330000A8F80A5018BF002916D0AFB1A6B19DB1D8
:10331000A0F58060A8F80000A1F58060A8F8020080
:10332000A7F58060A8F80400A6F58060A8F806005C
:10333000A5F58060A8F80A00990988F80910D2F864
:103340000610D2F80A70C8F80C10917BD27BC8F82E
:1033500010700227C3F3011047EA931341EA0227D2
:10336000032BA8F8147040F2183540F2D85740F2F9
:10337000285688F8080014BF00230123C2F2000574
:10338000C2F200070128C2F200062B7005D13B688B
:10339000002B02BF012333703B60530744BF02235D
:1033A0003370022805D13B681BB903233370012316
:1033B0003B6001F0800302F001029B1803D0002A59
:1033C00018BF05223270032804BF00203860480669
:1033D00006D440F21410C2F200000021018219E06C
:1033E00040F21410C2F20000018A01318AB2022AAE
:1033F00001820FD138684FF48041002840F6004028
:10340000C4F2020007BF0122012400220024FEF7BB
:10341000C1F83C6098F8091040F288000329C2F214
:10342000000005D0012920D100F10802002103E0AD
:1034300000F10C020430012190ED000A40F21C3032
:10344000B8EEC00AC2F2000092ED001A80ED070A41
:1034500040F28430B8EEC10AC2F2000080ED070AE3
:1034600040F23850C2F200000170B8F81400C104F4
:1034700006D440F21411C2F2000100228A830BE04C
:1034800040F21411C2F200018A8B013293B2022B76
:103490008A8304BF0A2131702978022918BFBDE848
:1034A000F08181072AA158BF043191ED000A9FEDF8
:1034B0002A1AC10740F2043508BFB0EE401AC2F222
:1034C00000050C2885ED001A08D140F23C11C2F22B
:1034D000000101220A700021696019E0410709D446
:1034E00001070BD440F23C120021C2F200026960D5
:1034F00011700DE00021CCF27A5102E00021C4F2FB
:103500007A51696040F23C11C2F2000100220A7057
:10351000C10612A158BF0431800612A058BF043062
:1035200009680268B8F90C00E9602A61FCF7B6FF87
:103530009FED050B53EC102BFCF73EFFFCF7D2FF81
:10354000A860BDE8F08100BF333333333333EB3F42
:1035500000007AC50000000000007A450000964592
:103560000000000000C028C50000000010B540F2B7
:103570003000C2F20000B0F9000040F2C4020021A5
:10358000C2F2000252F82130034442F821300131E6
:103590000429F7D140F2000040F21801C2F2000005
:1035A000C2F20001B0F900C0B1F900E040F28803B6
:1035B0000022C2F2000300BF53F8220003EB820195
:1035C00060448C6843F82200013204EB0E00012AAB
:1035D0008860F1D010BD000040F2B000C2F20000DF
:1035E00090EC031A90ED030AD0ED040A40F2DC508F
:1035F000C2F2000000F006FC40F29C00C2F20000A3
:1036000090EC031A90ED030AD0ED040A40F210602A
:10361000C2F2000000F0F6FB40F27404C2F20004B3
:1036200094EC031A94ED030AD4ED040A40F21C3022
:10363000C2F2000000F0E6FB94EC031A94ED030ADA
:10364000D4ED040A40F28430C2F2000000F0DAFB4C
:1036500040F26004C2F2000494EC031A94ED030AF1
:10366000D4ED040A40F25030C2F2000000F0CAFB70
:1036700094EC031A94ED030AD4ED040A40F2B83036
:10368000C2F2000000F0BEFB44F24C2440F21835B8
:10369000C2F20004C2F20005022607E028780128E1
:1036A00008BF00F00FF8032000F00CFB2078022880
:1036B000F4D00128F7D1FFF759FF00F065FF26701D
:1036C000F1E7000010B540F22854C2F2000420785F
:1036D0000138092888BF10BDDFE800F005080B1E7F
:1036E0000E1E1E1E1E1C00F035F810BD00F028F93D
:1036F00010BDFFF7FBFC10BD00F0A6FF40F6000078
:10370000C4F202004FF480710122FDF743FF002054
:10371000207010BD00F06AFF10BD000090ED011A8E
:1037200090ED022A31EE023A81EE031A82EE032A6C
:1037300090ED003A23EE011A22EE000A31EE000A63
:1037400080ED000A7047000080ED010AC0ED020A1A
:103750007047000070B544F24C25C2F2000568784D
:10376000032800F2E880DFE800F0024682AF40F272
:10377000C400C2F2000090ED010A40F6004440F29D
:10378000DC56C4F20204B8EEC00AC2F20006A4F588
:1037900080604FF48071012286ED070AFDF7FAFE82
:1037A00020464FF480510022FDF7F4FE40F2300035
:1037B000C2F2000096ED070A9FED5F2A90ED031A12
:1037C00030EE022AB4EE421AF1EE10FA40F3B38062
:1037D0009FED5A2A30EE020AB4EE401AF1EE10FACA
:1037E00080F2A98040F22850C2F20000002101704E
:1037F0000120687070BD40F2C404C2F2000494ED70
:10380000030A40F23000C2F200009FED4B2AB8EEEE
:10381000C00A90ED031A30EE022A40F2DC56B4EEF4
:10382000421AC2F20006F1EE10FA86ED070A40F3E2
:1038300082809FED422A30EE020AB4EE401AF1EE89
:1038400010FA78DA40F60040C4F202004FF48041EA
:103850000022FDF79FFE962000F034FA94ED020A54
:103860000220B8EEC00A86ED070A687070BD40F20B
:10387000DC50C2F2000090ED070A40F23000C2F2C4
:1038800000009FED2D2A90ED031A30EE022AB4EECF
:10389000421AF1EE10FA4EDD9FED282A30EE020AB0
:1038A000B4EE401AF1EE10FA45DA40F60040C4F2E8
:1038B00002004FF480510122FDF76CFE642000F0FD
:1038C00001FA0320687070BD40F2C400C2F200002B
:1038D00090ED000A40F23000C2F200009FED162A7F
:1038E000B8EEC00A90ED031A30EE022A40F2DC5026
:1038F000B4EE421AC2F20000F1EE10FA80ED070AAF
:1039000019DD9FED0E2A30EE020AB4EE401AF1EEF8
:1039100010FAA8BF70BD40F60040C4F202004FF498
:1039200080410122FDF736FE40F228510020C2F20C
:1039300000016870087070BD000048C30000484373
:1039400070B544F24C25C2F20005A878042800F2B4
:103950000D81DFE800F0034784B7F80040F2C400AF
:10396000C2F2000090ED010A40F6004440F2DC563D
:10397000C4F20204B8EEC00AC2F20006A4F58060E8
:103980004FF48071012286ED070AFDF703FE204601
:103990004FF480510022FDF7FDFD40F23000C2F2ED
:1039A000000096ED070A9FED722A90ED031A30EEA3
:1039B000022AB4EE421AF1EE10FA40F3D7809FEDDE
:1039C0006D2A30EE020AB4EE401AF1EE10FA80F2DF
:1039D000CD8040F22850C2F2000000210170012089
:1039E000A87070BD40F2C404C2F2000494ED030A52
:1039F00040F23000C2F200009FED5D2AB8EEC00A2E
:103A000090ED031A30EE022A40F2DC56B4EE421A70
:103A1000C2F20006F1EE10FA86ED070A40F3A68026
:103A20009FED542A30EE020AB4EE401AF1EE10FA7D
:103A300080F29C8040F60040C4F202004FF48041C6
:103A40000022FDF7A7FD962000F03CF994ED010A55
:103A50000220B8EEC00A86ED070AA87070BD40F2D9
:103A6000DC50C2F2000090ED070A40F23000C2F2D2
:103A700000009FED3F2A90ED031A30EE022AB4EECB
:103A8000421AF1EE10FA71DD9FED3A2A30EE020A89
:103A9000B4EE401AF1EE10FA68DA40F60040C4F2D3
:103AA00002004FF480510122FDF774FD642000F004
:103AB00009F90320A87040F22850C2F2000000214A
:103AC000017070BD40F60044C4F20204A4F54060E9
:103AD0004FF480710022FDF75DFD642000F0F2F8E4
:103AE00040F2C400C2F2000090ED000A40F2300043
:103AF000C2F200009FED1E2AB8EEC00A90ED031A34
:103B000030EE022A40F2DC50B4EE421AC2F200005B
:103B1000F1EE10FA80ED070A28DD9FED162A30EE4F
:103B2000020AB4EE401AF1EE10FAA8BF70BD2046AA
:103B30004FF480410122FDF72DFD1E2000F0C2F858
:103B40000420A87070BD322000F0BCF840F60040A0
:103B5000C4F202004FF4804100220024FDF71AFD58
:103B600040F22850C2F20000AC70047070BD00BF7B
:103B7000000048C300004843FDF726FDFEF70AFE9B
:103B8000FEF7ACFCFEF73EFCFEF72CFDFEF7F6FB65
:103B9000FEF716FCFFF706F99FED208A40F2D820C9
:103BA000C2F20000B0EE480A00F092FC40F2E820B9
:103BB000C2F20000B0EE480A00F08AFC40F2C820D1
:103BC000C2F20000B0EE480A00F082FC9FED148AB9
:103BD0009FED149A40F2A820C2F20000B0EE480A0D
:103BE000F0EE490AFFF7B0FD40F2B820C2F2000043
:103BF000B0EE480AF0EE490AFFF7A6FD40F2982021
:103C00009FED090AC2F20000F0EE490AFFF79CFDA1
:103C1000FEF714FC00F018F8FEE700BF0AD7233CBB
:103C2000ABAA2A3E0AD7A33B0E74DA3DB0F1840159
:103C300018BFC11C0846704780B5002808BF012086
:103C400000F03CFE002080BD80B500F0B5FE0020F5
:103C500080BD00002DE9F04385B047690C46A7B14F
:103C6000856995B1D0E90086D0F81090B0F90800C8
:103C7000FFF7DCFFCDE90007304641464A462346C0
:103C8000029501F023F8049013E0D0E90056078A6A
:103C9000B0F90800FFF7CAFF0DF1100C0090304694
:103CA00029463A462346CDF804C000F0DBFF012840
:103CB00003D1049805B0BDE8F083002005B0BDE84D
:103CC000F083000080B5FFF7B7FF80BD84B001F03E
:103CD00039F840F21C3840F2503540F2843940F255
:103CE000B83740F2DC5A40F2106640F2000BC2F2E4
:103CF0000008C2F20005C2F20009C2F20007C2F2D7
:103D0000000AC2F20006C2F2000B039004E000BFFA
:103D100003A8012100F0FCFDDBF80C00C8F820002E
:103D20004046FEF7CFFCBBF90210D8F8300000EE99
:103D3000101AE861B8EEC00A284685ED080AFEF7B9
:103D4000C1FC40F21804C2F20004E068C9F8200087
:103D50004846FEF7B7FCB4F90210D9F8300000EE7F
:103D6000101AF861B8EEC00A384687ED080AFEF767
:103D7000A9FC40F23004C2F20004E068CAF8200056
:103D80005046FEF79FFCB4F90210DAF8300000EE5E
:103D9000101AF061B8EEC00A304686ED080AFEF748
:103DA00091FC44F24C20C2F2000000780228AFD10E
:103DB00095ED0C0A97ED0C1ABDEEC00A10EE102A14
:103DC000BDEEC10A40F2EC3010EE103A0024C2F20F
:103DD000000040F2FF110094019400F091FB96ED79
:103DE0000C0A40F21440BDEEC00A10EE102AC2F2D6
:103DF00000004FF4007100230094019400F080FB58
:103E000086E7000080EC031A80ED030AC0ED040A87
:103E100070470000F0B581B00D4644F2545140F2B5
:103E20003C56C2F20001C2F200060F683168044637
:103E3000081D00F041FC10B1601C0FD019E0306883
:103E400044F26822C06AC2F200020121136801FA3A
:103E500000F023EA00001060601C0AD14DB1306808
:103E6000011D44F22C50C2F2000000F073FC01B0BE
:103E7000F0BD3068E41944600AD340F24850C2F201
:103E8000000000683168043100F046FC01B0F0BD6C
:103E900040F24050C2F2000000683168043100F086
:103EA0003BFC44F2F840C2F2000001688C4238BF8B
:103EB000046001B0F0BD000070B5044600F062FC83
:103EC00044F25820C2F20000016840F23C55013132
:103ED0000160C2F20005296844F22056C2F20006D1
:103EE00041B1306860B92868E16AC06A884298BF09
:103EF0002C6005E02C600068012801D100F00CF96D
:103F000044F26420C2F20000016844F268220131E8
:103F10000160E06AC2F20002012113688140194386
:103F2000116040F24C5100EB8000C2F2000101EB45
:103F30008000211D00F00EFC00F048FC306880B1CC
:103F40002868E16AC06A884228BF70BD4EF60450F6
:103F5000CEF200004FF080510160BFF34F8FBFF3EE
:103F60006F8F70BDF0B581B044F25C25C2F20005E0
:103F70002868E0B144F2405644F25827C2F20006E5
:103F8000C2F2000700F0FEFBF068C468201D00F0DC
:103F900093FB38680138386028680138286000F0E1
:103FA00015FC204600F006F828680028EAD101B088
:103FB000F0BD000010B5044690F85100022808BF7B
:103FC00010BD012803D030B9206B00F017FC20464B
:103FD00000F014FC10BD4FF0500080F31188BFF3C7
:103FE0006F8FBFF34F8F00BFFEE7000040F24460C9
:103FF000C2F20000C21D22F0070210F0070CA0EB75
:10400000020318BF104644F22452C2F200020021FB
:10401000C2E900014FF47052BCF1000F18BF03F564
:1040200070520244083A40F2445322F00702C2F2AE
:1040300000031A60C2E90011111A1A68C0E90021D0
:1040400044F2F440C2F20000016044F29820C2F24F
:104050000000016044F26C20C2F2000001210170F6
:104060007047000040F24C544EF60455C2F2000472
:10407000CEF200054FF08056FFF774FF206802284B
:10408000FAD32E60BFF34F8FBFF36F8FF4E70000BA
:104090002DE9F047DDE909878246386B089C00EB83
:1040A00082000438994620F0070679B107F1340000
:1040B000002200BF8B5C83548B5C1BB10F2A02F182
:1040C0000102F7D3002087F8430002E0002087F8C0
:1040D00034000025381D062C28BF0624FC62C7E9E1
:1040E000114500F015FB07F1180000F011FB84F0FA
:1040F0000700B861304651464A463F617F62FD6421
:1041000087F8505000F056F9B8F1000F386018BF2A
:10411000C8F80070BDE8F087B0B540F24C550024F7
:10412000C2F20005281900F0E7FA14348C2CF9D1FA
:1041300044F27024C2F20004204600F0DDFA44F29A
:104140008425C2F20005284600F0D6FA44F20C504D
:10415000C2F2000000F0D0FA44F24050C2F2000077
:1041600000F0CAFA44F22C50C2F2000000F0C4FA87
:1041700040F24050C2F20000046040F24850C2F2E7
:1041800000000560B0BD000080B544F22452C2F2C8
:10419000000200BF114612688242FBD3D1F804C06E
:1041A00001EB0C03834203D1406860444860084639
:1041B000D0F804C000EB0C03934201D013460BE08F
:1041C00040F24453C2F200031B689A4204D0D2E981
:1041D000003E0EEB0C0242608142036018BF086093
:1041E00080BD000008480068006880F308884FF030
:1041F000000080F3148862B661B6BFF34F8FBFF33F
:104200006F8F00DF00BF00BF08ED00E040F24050BC
:10421000C2F200000168096821B10068C068C06886
:10422000406801E04FF0FF3044F2F841C2F2000173
:104230000860704781B00020009040F2DC00C2F2BC
:10424000000000684FF0500181F31188BFF36F8FB9
:10425000BFF34F8F013001D0FEE700BF0098002868
:10426000FCD001B0704700002DE9F04381B0044656
:1042700000F0E2FB40F24456C2F20006306800282B
:1042800008BFFFF7B3FE44F26C28C2F2000898F8AA
:104290000000002818BF4FF0004020420DD000243D
:1042A00000F008FE60071ED04FF0500080F3118828
:1042B000BFF36F8FBFF34F8FFEE7C4B114F0070059
:1042C00004F108011EBF081A00F108015FEA4170FD
:1042D0000ED04FF0500080F31188BFF36F8FBFF303
:1042E0004F8F00BFFEE7204601B0BDE8F0830021FC
:1042F00044F29829C2F20009D9F800004A1E82420D
:10430000CDD244F22450C2F2000005682F4657F87F
:10431000042F8A4211D22B685BB100BF1F4657F8A9
:10432000042F28461D468A4207D22B68002BF5D160
:1043300003E044F22450C2F2000033689D42AED044
:1043400004682B68521A112A036010D368184307B7
:1043500009D04FF0500080F31188BFF36F8FBFF387
:104360004F8F00BFFEE742603960FFF70DFF44F258
:10437000F4403968D9F80020C2F200000368511AED
:104380009942C9F8001038BF016098F800003968F8
:1043900000284FF0000018BF41F00041286044F2AF
:1043A0000050C2F20000026808343960511C0160FC
:1043B00076E70000034644F23520C0F600004FF0D7
:1043C000807C21F0010103E903106FF0020043F843
:1043D000240CA3F1440043F8202C70470000000097
:1043E0002DE9F0412DED028BB0EE408A044600F03D
:1043F00073F8B7EE001AB4EE410AF1EE10FA11D1DB
:1044000094ED010A94ED021A20EE080A31EE000A3A
:10441000B4EE480AF1EE10FA84ED020A4ADD84EDAA
:10442000028A4BE0B0EE480A00F056F8BFEE001AE0
:10443000B4EE410AF1EE10FA11D194ED010A94EDB7
:10444000021A20EE080A31EE000AB4EE480AF1EE34
:1044500010FA84ED020A2DDA84ED028A2EE094ED42
:10446000020AB5EE400AF1EE10FA21D000F034F85D
:1044700010EE100AFCF723F88046A0680E4620F0E4
:104480000040FCF71CF89FED100B074653EC102B77
:104490000D46FBF791FF02460B4638462946FBF7CF
:1044A000E4FE42463346FBF787FFFCF71BF800E0CB
:1044B0000020A06084ED038A94ED028AB0EE480AE1
:1044C000BDEC028BBDE8F0819A9999999999A9BFA1
:1044D00080ED010A70470000B5EE400AF1EE10FAD7
:1044E000C4BFB7EE000A7047B5EE400AF1EE10FA0D
:1044F000B4BFBFEE000A9FED010A70470000000044
:1045000010B58AB00446082008900020DDE90CECC4
:10451000CDE90600100A8DF80800180A8DF80A0087
:104520004FEA1E208DF80C004FEA1C208DF80E007B
:1045300040F2EC30C2F20000844204918DF8092070
:104540008DF80B308DF80DE08DF80FC008D140F2DA
:10455000EC30C2F2000004A902AA01ABFCF776F924
:1045600040F21440C2F20000844201D00AB010BDF3
:1045700040F21440C2F2000004A902AA01ABFCF709
:1045800065F90AB010BD000040F23000C2F2000030
:10459000B0F9000040F20001C2F2000100EE100A82
:1045A00040F2DC50B1F90010B8EEC00AC2F20000CF
:1045B00080ED070A00EE101A40F21801C2F2000165
:1045C00040F21C30B1F90010B8EEC00AC2F200008F
:1045D00080ED070A00EE101A40F28430B8EEC00AEF
:1045E000C2F2000080ED070A7047000010B540F2EB
:1045F000C400C2F2000090ED030A40F2DC5040F625
:104600000044B8EEC00AC2F20000C4F2020480ED19
:10461000070A20464FF480410022FCF7BBFF2046EA
:104620004FF480510022FCF7B5FFA4F540604FF431
:1046300080710022FCF7AEFFA4F580604FF480711A
:104640000122FCF7A7FF10BD10B544F24C20C2F2C6
:1046500000000021C0F8011040F2980040F600442C
:10466000C2F20000FF21C4F20204017020464FF4A0
:1046700080410122FCF78EFF20464FF48051012239
:10468000FCF788FFA4F540604FF480710122FCF72D
:1046900081FF1E20FFF716FB40F2C400C2F20000AB
:1046A00090ED000A40F2DC50B8EEC00AC2F2000001
:1046B00080ED070A10BD0000D0E9013201699A605F
:1046C000D1F804C082688445536008BF4A60002264
:1046D00002610868013808600868704744F2A04326
:1046E000C2F20003036044F29C20C2F200000860A2
:1046F00080201060704700004FF0FF31024642F802
:10470000081F00214260C0E90322016070470000D9
:10471000002101617047000080B5D1F800C01CF194
:10472000010207D000F108039E465B681A686245E3
:10473000FAD901E0D0F810E0DEF8042008614A6000
:104740009160C1F808E0CEF8041001680131016001
:1047500080BD0000D0F800C0436808619A684B60D3
:104760008A609A68996051600CF10101016070479C
:10477000DFF80C00016841F470010160704700BF70
:1047800088ED00E04FF0500080F31188BFF36F8F89
:10479000BFF34F8F40F2DC00C2F2000001684A1CF8
:1047A000026001B170474EF60450CEF2000000687E
:1047B000000608BF70474FF0500080F31188BFF328
:1047C0006F8FBFF34F8F00BFFEE7000040F2DC00A9
:1047D000C2F20000016839B10139016018BF7047A9
:1047E000002080F3118870474FF0500080F311884B
:1047F000BFF36F8FBFF34F8FFEE70000B0B5002807
:1048000008BFB0BD044644F26C20C2F2000000783C
:1048100054F8041C002818BF4FF0004008420CD088
:10482000A4F108052A6892B14FF0500080F3118876
:10483000BFF36F8FBFF34F8FFEE74FF0500080F351
:104840001188BFF36F8FBFF34F8F00BFFEE721EAE0
:10485000000044F8040C00F0EFF844F29821C2F292
:10486000000154F8040C0A68104408602846FFF759
:104870008BFC44F20450C2F2000001680131016077
:1048800000F018FBB0BD00004EF21000CEF20000A8
:1048900000210160816040F24801C2F20001096814
:1048A00044F6D352C1F26202A1FB02124FF0FF3173
:1048B00001EB9211416007210160704710B5D8B13A
:1048C000044644F26020C2F20000006848B14FF094
:1048D000500080F31188BFF36F8FBFF34F8F00BF7D
:1048E000FEE700F0A9F820460021FFF793FA00F058
:1048F000E1FA002818BF10BD4EF60450CEF20000B9
:104900004FF080510160BFF34F8FBFF36F8F10BD29
:10491000B0B590B10D46D1B1044644F26020C2F268
:1049200000000068E8B14FF0500080F31188BFF339
:104930006F8FBFF34F8F00BFFEE74FF0500080F343
:104940001188BFF36F8FBFF34F8F00BFFEE74FF0AB
:10495000500080F31188BFF36F8FBFF34F8F00BFFC
:10496000FEE700F069F844F25450C2F2000000681B
:104970002268904202EB050102D2914202D309E083
:10498000914201D3814205D92160081A0021FFF725
:1049900041FA00E0216000F08DFA002818BFB0BD98
:1049A0004EF60450CEF200004FF080510160BFF38C
:1049B0004F8FBFF36F8FB0BD10B586B0002405A830
:1049C00004A903AACDE90444FFF788FEDDE903202A
:1049D00005990023CDE9010144F26500C0F600000D
:1049E00013A1009400F072F944F29C41C2F200015C
:1049F0000860D8B14FF0500080F31188BFF36F8F7B
:104A0000BFF34F8F44F2F840C2F200004FF0FF3185
:104A1000016044F22050C2F200000121016044F222
:104A20005450C2F20000046000F092F806B010BDCD
:104A300049444C450000000044F26020C2F20000EE
:104A4000016801310160704744F26020C2F2000049
:104A5000006830B144F25850C2F2000001210160F8
:104A6000704744F25850C2F200000021016044F245
:104A70006820C2F200000068B0FA80F0C0B2C0F155
:104A80001F0040F24C5100EB8000C2F2000151F8CF
:104A9000202092B101EB800050F8041F4968021DEC
:104AA0009142016001D149680160006840F23C51C7
:104AB000C068C2F20001086070474FF0500080F3F8
:104AC0001188BFF36F8FBFF34F8F00BFFEE7000069
:104AD00080B5B0F900E0A0F806E00A8812BA4FEA03
:104AE000124CA0F800C04B881BBA1B0C438089886D
:104AF00009BA090C8180AEEB224100EE101AB8EE23
:104B0000C00AB1F5805F80ED050A02DDB7EE000A4C
:104B100004E011F5805F07DABFEE000A90ED041A99
:104B200031EE000A80ED040A90ED040A9FED071AA9
:104B30000FFA8CF120EE010A01EE101AB8EEC11A3C
:104B400030EE010A80ED030A80BD00BF0000004680
:104B500080B582B04EF20040CEF200004CF27021DF
:104B6000C4F20F11D0F800294B1C9A4209D14FF022
:104B7000500080F31188BFF36F8FBFF34F8F00BFDA
:104B8000FEE7D0F800298A4209D14FF0500080F3A7
:104B90001188BFF36F8FBFF34F8F00BFFEE701781F
:104BA00044F244220191FF2101700178C2F2000217
:104BB0008DF803109DF8031001F05001117044F2BC
:104BC0004821C2F2000107220A609DF90320B2F1D8
:104BD000FF3F0CDC0A6800BF9DF80330013A5B0020
:104BE0008DF803309DF90330002BF5D40A600A6874
:104BF000032A2DD14FF4E06303EA02220A600199EF
:104C00000170D0F8201941F47001C0F82019D0F8D3
:104C1000201941F07041C0F82019FFF735FE40F22D
:104C2000DC00C2F2000000210160FFF7A1FD4EF69A
:104C30003470CEF20000016841F040410160FFF79E
:104C4000D1FAFFF701FFFFF7F5FA002002B080BDAF
:104C50004FF0500080F31188BFF36F8FBFF34F8F79
:104C6000FEE700002DE9F04383B007469000984628
:104C700015468946FFF7F8FA78B106465420FFF743
:104C8000F3FA38B10446066354B94FF0FF3003B06D
:104C9000BDE8F0833046FFF7B1FD0024002CF4D0CE
:104CA000DDE90A10002284F85120CDE900103846D1
:104CB00049462A4643460294FFF7EAF92046FFF7A1
:104CC000FBF8012003B0BDE8F083000070B586B0AA
:104CD0000B9CCCB10C9E06B354250495049D542D19
:104CE00025D1049DDDF828C0022586F8515005AD78
:104CF0003463CDE900C50296FFF7CAF93046FFF7E5
:104D0000DBF8059806B070BD4FF0500080F31188B5
:104D1000BFF36F8FBFF34F8FFEE74FF0500080F36C
:104D20001188BFF36F8FBFF34F8F00BFFEE74FF0C7
:104D3000500080F31188BFF36F8FBFF34F8F00BF18
:104D4000FEE7000044F25450C2F2000000687047D1
:104D50002DE9F04F81B044F26020C2F200000068FB
:104D600040B144F20850C2F2000001680024013151
:104D700001609BE044F25450C2F2000001684E1CF6
:104D8000066021D340F24050C2F200000168096879
:104D900049B14FF0500080F31188BFF36F8FBFF31C
:104DA0004F8F00BFFEE740F24852C2F20002016896
:104DB0001368036044F2FC401160C2F20000016815
:104DC00001310160FFF722FA44F2F841C2F200011A
:104DD000086840F23C5A8642C2F2000A01D200241E
:104DE0004EE040F2405BC2F2000BDBF80000002412
:104DF0000068D8B344F268290127C2F200091FE015
:104E0000D8F82C00D9F8001007FA00F21143C9F8BD
:104E1000001040F24C5100EB8000C2F2000101EBA7
:104E200080002946FFF796FCD8F82C00DAF800102D
:104E3000C96ADBF800208842106828BF3C46C0B130
:104E4000DBF80000C068D0F80C80454655F8040F28
:104E5000864210D32846FFF72FFCD8F828000028F8
:104E6000CED008F11800FFF727FCC9E74FF0FF305C
:104E700005E04FF0FF3044F2F841C2F20001086053
:104E8000DAF8000040F24C51C06AC2F2000100EBB7
:104E9000800051F82000012844F25850C2F200006E
:104EA00088BF01240068002818BF0124204601B0F3
:104EB000BDE8F08F2DE9F04F81B044F26024C2F2DA
:104EC0000004206868B1FFF75DFC206801382060AD
:104ED000206880B10024FFF779FC204601B0BDE8CE
:104EE000F08F4FF0500080F31188BFF36F8FBFF346
:104EF0004F8F00BFFEE744F25820C2F20000006866
:104F000000285FD044F20C56C2F20006306844F22A
:104F10005858C2F2000898B344F2682540F24C5940
:104F200040F23C5A4FF0010BC2F20005C2F20009F8
:104F3000C2F2000AF068C76807F11800FFF7BCFB6F
:104F40003C1D2046FFF7B8FBF86A29680BFA00F20F
:104F5000114300EB8000296009EB80002146FFF738
:104F6000F9FBF86ADAF80010C96A884228BFC8F865
:104F700000B030680028DDD1002F18BFFFF746F9D8
:104F800044F20854C2F2000425685DB1012600BF56
:104F9000FFF7DEFE002818BFC8F80060013DF7D11A
:104FA00000202060D8F8000070B14EF60450CEF218
:104FB00000004FF080510160BFF34F8F0124BFF319
:104FC0006F8F88E7002486E7002484E702E008C8A2
:104FD000121F08C1002AFAD170477047002001E073
:104FE00001C1121F002AFBD1704700005850000871
:104FF0004D2F0008000000000000000080000000AD
:10500000000000000000000061500008D9350008D1
:105010000000000000000000800000000000000010
:10502000000000006A500008CD3C000800000000AD
:1050300000000000800000000000000000000000F0
:105040000000000000000000010203040607080938
:1050500000000000010203046D795461736B30316C
:10506000006D795461736B3032006D795461736BEC
:10507000303300009850000800000020E0000000DD
:10508000CC4F000878510008E00000208048000064
:10509000DC4F0008000000000010000000000010BD
:1050A0000000000000000000000000000000000000
:1050B00000100000000000100000000000000000D0
:1050C00000000000000000000010000000000010C0
:1050D00000000000000000000000000000000000D0
:1050E0000024F40000002041000000000000000047
:1050F00000606A4600000000000060400000000000
:105100000000000000606A46000000000000003F50
:105110006F12833A0000000000803B4600004843C5
:1051200000000000F8D3F2FF00000000082C0D0082
:10513000FF000000000040410000000000000000EF
:1051400000606A46000000006666E63E6F12833B20
:10515000000000000080BB4400002F44000000005D
:105160003095000040BC000000300100010000004C
:0851700010000000AAAAAAAA7F
:04000005080001AD41
:00000001FF
